:020000040000FA
:04000000DFEF08F036
:100800000020434C41564520434F525245435441EA
:100810002000434C41564520494E434F52524543D8
:10082000544100202A4249454E56454E49444F2ADC
:100830002000494E47524553415220434C415645B2
:10084000002A2A424C4F5155454F2A2A0000000EDB
:10085000946E000E956E20EE26F0040EDE6AE80619
:10086000FDE2000E3A6E000E396E030E3B6E050E71
:100870003C6E080E3D6E090E3E6E20EE48F010EE06
:1008800016F0070EDBCFE3FFE806FCE220EE40F0B7
:1008900010EE1EF0070EDBCFE3FFE806FCE2000ED1
:1008A000026E030E016E4EEC09F0FF0AD8A45BEF56
:1008B00004F05DEF04F065EF04F0000E026E030E2D
:1008C000016E330E036E28EC09F0000E026E050E69
:1008D000016E4EEC09F0FF0AD8A471EF04F073EF3B
:1008E00004F07BEF04F0000E026E050E016E350E73
:1008F000036E28EC09F0000E026E080E016E4EEC3D
:1009000009F0FF0AD8A487EF04F089EF04F091EF13
:1009100004F0000E026E080E016E380E036E28EC15
:1009200009F0000E026E090E016E4EEC09F0FF0A8E
:10093000D8A49DEF04F09FEF04F0A7EF04F0000EA1
:10094000026E090E016E390E036E28EC09F059ECA7
:1009500008F055EC09F0010E026E020EA7EC08F04B
:10096000320E026E080E036E0E0E046E09EC09F0D4
:1009700070EC06F03F6E3F50D8B4C1EF04F0C3EF07
:1009800004F0B8EF04F0410E3F18D8B4CAEF04F0F9
:10099000CCEF04F01EEF05F0420E3F18D8B4D3EFB1
:1009A00004F0D5EF04F01EEF05F0430E3F18D8B465
:1009B000DCEF04F0DEEF04F01EEF05F0440E3F180C
:1009C000D8B4E5EF04F0E7EF04F01EEF05F0230ED6
:1009D0003F18D8B4EEEF04F0F0EF04F01EEF05F08E
:1009E0002A0E3F18D8B4F7EF04F0F9EF04F01EEF29
:1009F00005F0010E026E020EA7EC08F0320E026E38
:100A0000080E036E0E0E046E09EC09F0260E392452
:100A1000D96E000E3A20DA6E3FC0DFFF394A3A2A1B
:100A2000020E026E3950050FA7EC08F04B0E026E55
:100A3000080E036E020E046E09EC09F0230E3F1837
:100A4000D8A425EF05F027EF05F0B8EF04F03BC080
:100A500001F0026A4EEC09F02618D8A432EF05F036
:100A600034EF05F03AEF05F0000E326E010E316EF4
:100A70003EEF05F0000E326E000E316E3CC001F00C
:100A8000026A4EEC09F02718D8A449EF05F04BEFA5
:100A900005F051EF05F0000E346E010E336E55EF88
:100AA00005F0000E346E000E336E3DC001F0026A98
:100AB0004EEC09F02818D8A460EF05F062EF05F0BD
:100AC00068EF05F0000E366E010E356E6CEF05F026
:100AD000000E366E000E356E3EC001F0026A4EEC1E
:100AE00009F02918D8A477EF05F079EF05F07FEF2A
:100AF00005F0000E386E010E376E83EF05F0000E24
:100B0000386E000E376E33503124146E345032205C
:100B1000156E3550142636501522375014242B6E7E
:100B2000385015202C6E040E2B182C10D8A49BEFD7
:100B300005F09DEF05F0EDEF05F0010E026E010EE0
:100B4000A7EC08F0010E026E080E036E100E046E84
:100B500009EC09F0060E156E130E146EAE0EE82E9B
:100B6000FED7142EFCD7152EFAD75BEC09F0010E38
:100B7000026E020EA7EC08F0230E026E080E036E42
:100B8000100E046E09EC09F0060E156E130E146EAD
:100B9000AE0EE82EFED7142EFCD7152EFAD71E0E59
:100BA000826E060E156E130E146EAE0EE82EFED774
:100BB000142EFCD7152EFAD7010E826E060E156E76
:100BC000130E146EAE0EE82EFED7142EFCD7152E83
:100BD000FAD7000E826E27EF04F0010E026E010EAE
:100BE000A7EC08F0120E026E080E036E100E046ED3
:100BF00009EC09F00D0E146EFC0EE82EFED7142E33
:100C0000FCD783860B0E156E260E146E5E0EE82E34
:100C1000FED7142EFCD7152EFAD78396060E156E26
:100C2000130E146EAE0EE82EFED7142EFCD7152E22
:100C3000FAD75BEC09F0010E026E030EA7EC08F088
:100C4000410E026E080E036E100E046E09EC09F0E0
:100C5000150E156E4B0E146EBE0EE82EFED7142E1A
:100C6000FCD7152EFAD700D0010E826E030E156E3A
:100C70008A0E146E560EE82EFED7142EFCD7152EB3
:100C8000FAD7010E826E030E156E8A0E146E560E82
:100C9000E82EFED7142EFCD7152EFAD7030E826E3F
:100CA000060E156E130E146EAE0EE82EFED7142E21
:100CB000FCD7152EFAD7000E826E5BEC09F0010E00
:100CC000026E020EA7EC08F0320E026E080E036EE2
:100CD000100E046E09EC09F027EF04F000EF00F0AD
:100CE00020EE60F010EE01F00F0EDBCFE3FFE80620
:100CF000FCE2000E116E000E136E000E126E12500A
:100D00001310D8A486EF06F088EF06F0BAEF06F0CD
:100D1000FE0E8A6EA60EE82EFED700D092EF06F0E9
:100D200001C011F081A897EF06F099EF06F090EF5F
:100D300006F09DEF06F002C011F081AAA2EF06F0C6
:100D4000A4EF06F09BEF06F0A8EF06F003C011F049
:100D500081ACADEF06F0AFEF06F0A6EF06F0B3EF13
:100D600006F004C011F081AEB8EF06F0BAEF06F05D
:100D7000B1EF06F012041310D8A4C1EF06F0C3EFD0
:100D800006F0F5EF06F0FD0E8A6EA60EE82EFED7F1
:100D900000D0CDEF06F005C011F081A8D2EF06F02B
:100DA000D4EF06F0CBEF06F0D8EF06F006C011F056
:100DB00081AADDEF06F0DFEF06F0D6EF06F0E3EFF5
:100DC00006F007C011F081ACE8EF06F0EAEF06F09C
:100DD000E1EF06F0EEEF06F008C011F081AEF3EFA0
:100DE00006F0F5EF06F0ECEF06F0020E1218131005
:100DF000D8A4FDEF06F0FFEF06F031EF07F0FB0E91
:100E00008A6EA60EE82EFED700D009EF07F009C0C3
:100E100011F081A80EEF07F010EF07F007EF07F0D1
:100E200014EF07F00AC011F081AA19EF07F01BEFC9
:100E300007F012EF07F01FEF07F00BC011F081ACC5
:100E400024EF07F026EF07F01DEF07F02AEF07F079
:100E50000CC011F081AE2FEF07F031EF07F028EF53
:100E600007F0030E12181310D8A439EF07F03BEF68
:100E700007F06DEF07F0F70E8A6EA60EE82EFED78C
:100E800000D045EF07F00DC011F081A84AEF07F040
:100E90004CEF07F043EF07F050EF07F00EC011F0F2
:100EA00081AA55EF07F057EF07F04EEF07F05BEF21
:100EB00007F00FC011F081AC60EF07F062EF07F0B0
:100EC00059EF07F066EF07F010C011F081AE6BEF3D
:100ED00007F06DEF07F064EF07F0124A132A13BE14
:100EE0007BEF07F0135009E1040E125CD8A07BEFF2
:100EF00007F07DEF07F07FEF06F011501200016E52
:100F00008C9001A886EF07F088EF07F08BEF07F0D1
:100F10008C888CEF07F08C9801AA91EF07F093EF83
:100F200007F096EF07F08C8A97EF07F08C9A01ACE8
:100F30009CEF07F09EEF07F0A1EF07F08C8CA2EF7B
:100F400007F08C9C01AEA7EF07F0A9EF07F0ACEF1C
:100F500007F08C8EADEF07F08C9E8C84C80E00D00D
:100F6000E82EFDD78C94C80E00D0E82EFDD701A046
:100F7000BCEF07F0BEEF07F0C1EF07F08C88C2EFBF
:100F800007F08C9801A2C7EF07F0C9EF07F0CCEF8C
:100F900007F08C8ACDEF07F08C9A01A4D2EF07F00E
:100FA000D4EF07F0D7EF07F08C8CD8EF07F08C9CCC
:100FB00001A6DDEF07F0DFEF07F0E2EF07F08C8E20
:100FC000E3EF07F08C9E8C84C80E00D0E82EFDD78E
:100FD0008C94C80E00D0E82EFDD71200016E8C80D4
:100FE00001A8F5EF07F0F7EF07F0FAEF07F08C88AC
:100FF000FBEF07F08C9801AA00EF08F002EF08F071
:1010000005EF08F08C8A06EF08F08C9A01AC0BEF24
:1010100008F00DEF08F010EF08F08C8C11EF08F0DD
:101020008C9C01AE16EF08F018EF08F01BEF08F0EB
:101030008C8E1CEF08F08C9E8C84640EE82EFED7FC
:101040008C94640EE82EFED701A029EF08F02BEF58
:1010500008F02EEF08F08C882FEF08F08C9801A292
:1010600034EF08F036EF08F039EF08F08C8A3AEFE9
:1010700008F08C9A01A43FEF08F041EF08F044EF2C
:1010800008F08C8C45EF08F08C9C01A64AEF08F024
:101090004CEF08F04FEF08F08C8E50EF08F08C9E6C
:1010A0008C84640EE82EFED78C94640EE82EFED756
:1010B0001200140E026E7A0EE82EFED7022EFCD716
:1010C0009590959295949598959A959C959E8C9EC1
:1010D0008C9C8C9A8C988C948C928C908C9E8C9CF2
:1010E0008C8A8C888C848C928C90C80E00D0E82ED0
:1010F000FDD78C94C80E00D0E82EFDD78C9E8C9C1A
:101100008C8A8C888C848C928C90C80E00D0E82EAF
:10111000FDD78C94C80E00D0E82EFDD78C9E8C9CF9
:101120008C8A8C988C848C928C90C80E00D0E82E7F
:10113000FDD78C94C80E00D0E82EFDD7280E7FEC8A
:1011400007F00C0E7FEC07F05BEC09F01200066E66
:10115000BDEF08F00604056EDAEF08F006503F0F09
:10116000056EDAEF08F00650130F056EDAEF08F09F
:101170000650530F056EDAEF08F00250036E046A52
:101180000450000AD8B4C7EF08F0AAEF08F00350E3
:10119000010AD8B4AAEF08F0030AD8B4AEEF08F0F9
:1011A000010AD8B4B3EF08F0070AD8B4B8EF08F0D2
:1011B000AAEF08F0055080097FEC07F012008C0EB2
:1011C000F66E120EF76E000EF86E00EE60F010EE86
:1011D00010F00900F5CFEEFFE550E150FAE17C0E8A
:1011E000F66E120EF76E000EF86E00EE40F010EE86
:1011F00010F00900F5CFEEFFE550E150FAE1546A36
:10120000536A526A516A506A000EF86E000127EF65
:1012100004F0000E076E000E076E1EEF09F0075077
:101220000224056E000E0320066E05C0F6FF06C000
:10123000F7FF0800F550EEEC07F0072A0450075CB2
:10124000D8A025EF09F027EF09F00FEF09F0120001
:1012500001C0A9FF03C0A8FFA69EA69CA684F29E7B
:10126000550EA76EAA0EA76EA682F28EA6B23BEF0F
:1012700009F03DEF09F036EF09F012000900030014
:1012800006000C000C000600030009003132334157
:1012900034353642373839432A30234401C0A9FF58
:1012A000A69EA69CA680A8501200F00E9316F00EE3
:0E12B0009312F19E1200010E7FEC07F0120067
:020000040020DA
:08000000FFFFFFFFFFFFFFFF00
:020000040030CA
:0E000000000C1F1EFF8181FF0FC00FE00F409C
:00000001FF
